:100000000C949C010C94E3010C94E3010C945D09A5
:100010000C94E3010C94E3010C94E3010C94E301D0
:100020000C94E3010C94E3010C94AF190C94831A23
:100030000C9428150C94E3010C94E3010C94E30157
:100040000C94E3010C94E3010C94E3010C94E301A0
:100050000C94E3010C947F150C94E3010C94E301E0
:100060000C94E3010C94E3010C94E3010C94E30180
:100070000C94E3010C94E3010C94E3010C94E30170
:100080000C94E3010C94E3010C94E3010C94E30160
:100090000C94E3010C94E3010C94E3010C94E30150
:1000A0000C94E3010C94E3010C94E30135001E0071
:1000B0001F00200021002200230000002B0014005C
:1000C0001A000800150017001C0000003900040089
:1000D0001600070009000A0000000000E1001D00F2
:1000E0001B00060019000500000000003A00E000B7
:1000F000E200E30029002C000000000000002400C2
:100100002500260027002D002E004C001C001800A2
:100110000C00120013002F003000310000000B0013
:100120000D000E000F003300340028000500110000
:1001300010003600370038005200E10000002C00AB
:100140002A00E700E600500051004F001E001F008B
:1001500020002100220023002400000004000400ED
:100160001600070009000A00150000001E001D000F
:100170001B000600190005000000000017001E000B
:100180001D001B0006001900000000003A003A00A4
:100190001E001F00200021000000000000002500BC
:1001A000260027001E001F00200021000B000D006C
:1001B0000E000F001E001F0020001700000011009D
:1001C00010001E001F0020001E0015000500150075
:1001D0001700110010003A0037003800000022001C
:1001E0002300110010002400370038001E001F00FB
:1001F000200021002200230024000000040004004D
:100200001600070009000A00150000001E001D006E
:100210001B000600190005000000000017001E006A
:100220001D001B0006001900000000003A003A0003
:100230001E001F002000210000000000000025001B
:10024000260027001E001F00200021000B000D00CB
:100250000E000F001E001F002000170000001100FC
:1002600010001E001F0020001E00150005001500D4
:100270001700110010003A0037003800000022007B
:100280002300110010002400370038001A03690011
:1002900072006900670075006300680069007400FF
:1002A0006500730074000000160369006E0074009E
:1002B000650072006500730074006F00720000003A
:1002C0000403090409022200010100A0FA09040044
:1002D0000001030101000921110100012240000772
:1002E00005810308000A12011001000000084659A8
:1002F000010001000102000105010906A101050735
:1003000019E029E71500250195087501810295017D
:10031000750881010507190029FF150026FF0095C2
:1003200006750881000508190129059505750191D3
:1003300002950175039101C011241FBECFEFDAE0D1
:10034000DEBFCDBF04B603FE27C08091110290919D
:100350001202A0911302B09114028730904BA74073
:10036000B04BD1F4109211021092120210921302AB
:100370001092140214BE84B7877F84BF0FB6F8941E
:10038000A895809160008861809360001092600061
:100390000FBEE0E0F8E3099511E0A0E0B1E0EAE685
:1003A000F9E302C005900D92A832B107D9F722E017
:1003B000A8E2B1E001C01D92A131B207E1F70E94AD
:1003C000FD160C948F1C0C94000081E0089581E0D0
:1003D00008950C94E70108950C94EB011F93CF93BB
:1003E000DF9300D000D00F92CDB7DEB749835A8398
:1003F0006B833091580189819A8131111DC0662328
:10040000B9F02223A9F00E946F12182F682F89815A
:100410009A810E941A1269817A81812F0F900F9020
:100420000F900F900F90DF91CF911F910C94AC0221
:100430000E944712182FEFCF0E946F1269817A81B4
:10044000EDCFFC01262F408151816281738184812F
:100450000C94EE01CF93DF93EC0160E00E94210247
:10046000BE01DF91CF910C94EC010E946F040C94BB
:1004700094040C94970408950E94FC0D0E943B0282
:100480002FEF84E39CE0215080409040E1F700C0D2
:1004900000000C94E4150F931F93CF93DF938C010E
:1004A00061E00E942102EC01B8010E94E901882369
:1004B000A9F1B801CE010E94BD06882379F1B801E7
:1004C000CE010E940F07882349F1B801CE010E9496
:1004D0003208882319F1F8018281882361F0CB3535
:1004E000FDE5DF0721F170F4C115ECE5DE07A1F0B1
:1004F000CF3DDC45C9F0C801DF91CF911F910F912D
:100500000C94E501CC358DE5D807A1F0CD35DD455E
:1005100091F70E941613EFCF0E943C0280E0DF911A
:10052000CF911F910F9108950E947C14F7CF0E94E4
:100530001F13E1CF0E942213DECF08950C949D0279
:1005400081E008950C94A002CF93C82F0E949E02D0
:100550008C2FCF910C94A202E72FF0E09AE0899FB4
:10056000E00DF11D112483E0EE0FFF1F8A95E1F7E6
:10057000E60FF11DEE0FFF1FE455FF4F859194919B
:100580000895CF93DF930E94AC020E949403EC0184
:10059000811523E5920790F5811532E5930708F060
:1005A00096C081159042C8F4C11581E0D80788F43F
:1005B000C53AD10548F4C430D10558F4C130D1054D
:1005C00041F0D0E0C0E005C0CE01805E91090897FF
:1005D000C0F7CE01DF91CF910895C11591E5D907FC
:1005E00008F070C0C11520E5D20708F04EC0C11553
:1005F00030E4D30730F3DF70D06AEBCF811546E5E6
:100600009407F0F4C11585E5D80708F075C0C11549
:1006100094E5D90708F06BC0CE018370992721E0DB
:1006200030E002C0220F331F8A95E2F7C695C695C7
:1006300090E2C99FE0011124C22BD32BDA68C9CF05
:1006400081152AE5920778F4811539E5930708F0BA
:100650005EC0811548E5940708F4B3CFD82FCC27A6
:10066000C06FD06AB6CF90568115904208F0A9CFDE
:100670008D2F8F710E942B0490E0982F8827882758
:100680009F719C012C2BE90140C0CE01E4E09695BE
:100690008795EA95E1F783702C2F26952695237090
:1006A00040E2249F90011124382B8C2F8370C1E0ED
:1006B000D0E002C0CC0FDD1F8A95E2F7C22BD32B0E
:1006C000DC6887CFDC2FCC27C16FD06A82CF8370E4
:1006D000992721E030E002C0220F331F8A95E2F70C
:1006E000C695C69580E2C89FE0011124E7CFDC2FB4
:1006F000CC27C46FD06A6DCF8C2F0E942B04C82FDB
:10070000D0E0DC2FCC27CC27DF71D06262CF8F7096
:100710000E942B0434E0D695C7953A95E1F7CF7047
:100720009C2FEC01D06955CF82389105B1F1B0F41E
:100730008133910509F475C048F48932910509F4B3
:1007400069C08A32910509F473C008958533910513
:1007500009F459C08933910501F10895833E91054B
:10076000A9F138F4803E9105F9F0823E910549F1F6
:100770000895863E9105A9F1873E9105C9F1843E11
:10078000910519F52091E50121FF1FC08091E40139
:1007900084FD14C087EE90E008952091E401237059
:1007A000A1F080EE90E008952091E40120FD47C083
:1007B0003091E50130FF09C024FF44C090E080E0A3
:1007C00004C02091E40122FDF7CF08952091E401B7
:1007D00022FD3BC03091E50130FDE3CF24FFF5CF92
:1007E000EDCF2091E40123FFF0CF24FDE7CFD2CF5E
:1007F0002091E40123FD2CC03091E50131FFEECFC3
:1008000084EE90E008952091E40125FFDECF89E297
:1008100090E008952091E40125FFD7CF85E390E093
:1008200008952091E40126FFD0CF8AE290E0089558
:100830002091E40126FFC9CF81E390E0089589E388
:1008400090E0089583EE90E0089582EE90E00895A0
:1008500086EE90E008959091E40192FF06C0282F63
:1008600028712830F9F4877F846093FF06C0282F11
:1008700028712831F1F4877E84612091E50120FF01
:1008800006C0382F38713830D9F4877F816021FF56
:1008900006C0282F28712831D1F4877E816194FD0C
:1008A000877E0895282F24712430F9F68B7F886085
:1008B000DCCF282F2471243101F78B7E8861DDCFB6
:1008C000382F3171313019F78E7F8860E0CF282FB3
:1008D0002171213121F78E7E8861E1CF08950E9438
:1008E000D713811102C00E947C140E94E2138093EE
:1008F000D8010E94EA139093E5018093E4010E94DD
:100900006E040E94E613682F70E090E080E00E9481
:100910001C116091C3017091C4018091C501909137
:10092000C6010C94561108950C94930408950C94E8
:100930009604E82FF0E0E051FE4F8081089508957D
:1009400080EA8A95F1F7089500C008950C94A004F8
:10095000F894E82FE295EF70F0E031A1282F2F7086
:1009600081E090E001C0880F2A95EAF7982F9095D2
:10097000932391A392A1892B82A37894089508953B
:100980000C94BF04CF93DF930E9440068091000136
:100990008091000195E0811190E09093FB0185E04A
:1009A000891B8093FA0184E90E94A80486E60E94CC
:1009B000A80487E90E94A80486EC0E94A80484E3A6
:1009C0000E94A804C6E1D1E089910E94A80481E0B8
:1009D000CE31D807C9F7E6EEF1E0A0EFB1E0119211
:1009E0001D9281E0E03FF807D1F785E00E94EF0516
:1009F0000E943502DF91CF910C944A06FF920F932B
:100A00001F93CF93DF9300D000D00F92CDB7DEB706
:100A10000E942606F82E6091FB01882309F450C03D
:100A20008E010F5F1F4F85E0F80111928A95E9F75B
:100A3000862F90E0B80180519E4F0E946808811176
:100A400022C080912A018F5F80932A018630B0F105
:100A5000E091FA01F0E0E051FE4FD801CE01069698
:100A600011921D92A817B907D9F70E9439028F2D4C
:100A70000F900F900F900F900F90DF91CF911F91DB
:100A80000F91FF90089510922A01A091FA01B0E011
:100A9000A051BE4F9E012A5F3F4FF12C4D91F801AE
:100AA00091918F01491731F0AD0141505109FA017F
:100AB0009083F82E0217130789F7D7CFF12CD5CFE3
:100AC00070E060517E4F8091FA0190E080519E4F1E
:100AD0000E948F080E94C004CACFCF92DF92EF928B
:100AE000FF920F931F93CF93DF930EE111E086EEF9
:100AF000E82E81E0F82EC0E0CC24C394D12CF8017C
:100B000081918F01F894E82FE295EF70F0E021A138
:100B10008F70A60102C0440F551F8A95E2F7CA01E3
:100B2000922F982B91A392A18095892382A37894E8
:100B30000E94A404E6E1F1E030E020E0D0E0419141
:100B4000A42FA295AF70B0E090968C9190E04F707A
:100B500002C0959587954A95E2F780FD3CC08C2DA3
:100B6000022E01C0880F0A94EAF7D82B2F5F3F4F5F
:100B70002830310521F7F801319780810E94A804BF
:100B80000E94A604F7018081D81739F1D08381E053
:100B9000C82BFFEFEF1AFF0A41E00332140709F0F8
:100BA000AECF6091FB0170E060517E4F2C2F45E08D
:100BB00086EE91E00E94F0050E94FE04C11101C082
:100BC000C82F8C2FDF91CF911F910F91FF90EF9045
:100BD000DF90CF90089580E0C8CF80E0D9CF08950E
:100BE000FF920F931F93CF93DF93F82E092F162FA9
:100BF000D72FC42F222349F081E080932D010E943A
:100C0000581590932C0180932B0180912D018823FE
:100C1000A1F080912B0190912C010E9470150697F4
:100C200060F0EF2DF02FA12FBD2FCE0FDF2FD11DA4
:100C3000EC17FD0741F410922D01DF91CF911F9128
:100C40000F91FF90089581918D93F2CF80912E01A5
:100C5000811107C00E943A1C882351F081E08093E3
:100C60002E0181E090912E01913009F080E00895ED
:100C700082E080932E010E94351CF3CF0C9426064F
:100C80000E943E06809300010E94260681110C946A
:100C90005C0808950E942606811102C00C94620827
:100CA00008950F931F93CF93DF93C42FD22FFC018E
:100CB00082818823C9F0409331010E945815909396
:100CC000300180932F0180E28C0F883008F050C0F3
:100CD000C77081E001C0880FCA95EAF7DF91CF9114
:100CE0001F910F910C94C30B10913101141335C057
:100CF00080912F01909130010E947015883C9105E0
:100D000060F5C0E2CD0F1D17B9F080E2810F883089
:100D100040F4177081E001C0880F1A95EAF70E942D
:100D2000CA0BC83048F481E09D2F977001C0880F2E
:100D30009A95EAF70E94C30B802F0E94BB0BC83024
:100D4000B8F4D77081E001C0880FDA95EAF7DF9137
:100D5000CF911F910F910C94CA0B80E28C0F8830B9
:100D600038F4C77081E001C0880FCA95EAF7EFCF69
:100D7000DF91CF911F910F9108950F939C01CB01AB
:100D8000243F4CE5340759F1A8F4293DFCE53F0721
:100D900001F12A3D4CE53407D1F1283D3C4591F461
:100DA00006E221EE41EE68ED7CE50E94510680E00E
:100DB0000F910895263FFCE53F07E9F0B0F0273F8B
:100DC0003C45F9F0FC018281882339F11092310110
:100DD000EFCF07E225EE45EE69ED7CE5E6CF06E2D2
:100DE00021EE40EE64EF7CE5E0CF07E225EE44EE35
:100DF00065EF7CE5DACF06E221EE42EE66EF7CE5B8
:100E0000D4CF07E225EE46EE67EF7CE5CECF08E2D1
:100E100021E045EE6AED7CE5C8CF81E0C9CFCF93F4
:100E2000DF93EC01FB018281882309F419C1C230F0
:100E3000FCE5DF07C0F1C6319CE5D90730F09E0123
:100E40002B5F3C452930310570F50E94EA139093E1
:100E5000E5018093E401C031ECE5DE0709F4CFC081
:100E600008F05BC0C8308CE5D80709F4B6C088F537
:100E7000C430ECE5DE0709F4A8C0C0F4C2308CE54C
:100E8000D80709F49CC08091E4018260C330DC453E
:100E900009F498C08091E4019091E5010E94F81353
:100EA0000E94FC0D80E0DF91CF9108958091E401D4
:100EB0008061C630ECE5DE0709F484C08091E4016E
:100EC0008860C730DC4508F47DC08091E401806211
:100ED00079C0CC308CE5D80709F489C070F48091D2
:100EE000E4018C60CA30ECE5DE0709F46BC008F45D
:100EF00078C08091E4018E7F65C0CE308CE5D80744
:100F000009F479C08091E4018B7FCF30DC4508F48F
:100F100059C08091E4018F7E55C0CC3FECE5DE07DF
:100F200009F457C030F5C3318CE5D80709F46FC018
:100F300078F4C131ECE5DE0709F465C0C231DC4567
:100F400009F0A8CF0E94FC0D8091E4018F773AC090
:100F5000C5318CE5D80709F462C008F476C08091E9
:100F6000E5018160CB3FDC4509F094CF8093E5013A
:100F700091CFC115FDE5DF0709F44DC088F48091DC
:100F8000E5018D7FCE3F9CE5D90781F38091E50196
:100F90008E7FCF3FDC4550F38091E5018360E6CF43
:100FA000C230FDE5DF0709F459C008F444C080E011
:100FB000C330DD4509F06ECF0E947E146BCF809167
:100FC000E40181608093E40165CF8091E401846055
:100FD000F9CF8091E5018260C9CF8091E4018064FE
:100FE000F1CF0E94FC0D8091E4018068EBCF8091ED
:100FF000E4018D7FE7CF8091E401877FE3CF80918B
:10100000E4018F7DDFCF8091E4018F7BDBCF809186
:10101000E401837FD7CF8091E5018C7FA7CF8091BA
:10102000E40182FB992790F921E0922790FB82F955
:1010300090FB83F9C7CF8091E501982F909591702F
:101040008E7F892B90FB81F991CF0E94FC0D9091AE
:10105000E401892F97FB87F98058B4CF81E0ACCFAA
:1010600081E021CFCF93DF93EB0186319C4511F5D1
:101070000E9425139A81992399F08A7A91E009F4C4
:1010800090E090933201811109C089E20E94DF1241
:101090000E94681380E0DF91CF91089585E3F6CF39
:1010A00080913201811104C089E20E94E612F0CFE2
:1010B00085E3FBCF81E0EFCF61E070E081E091E07C
:1010C0000C940E0961E070E081E091E00C94150948
:1010D000CF93DF93D62FC72F0E94AF090097E9F473
:1010E000ED2FFC2FDC01A85CBE4F2C9121930196C3
:1010F00085309105B9F70E94C9156E5F7F4F8F4FFC
:101100009F4F609334017093350180933601909323
:10111000370181E0DF91CF91089580E0FBCFCF933D
:10112000DF93D62FC72F60913401709135018091E4
:101130003601909137010E94AC15ED2FFC2F90E005
:1011400080E02191DC01A85CBE4F2C930196853094
:101150009105B9F7DF91CF9108958EE14A9B02C0C6
:101160008150E1F74A9BFECF08955A9880E28A9514
:10117000F1F75A9A0895FC013BE03A95F1F798E0AF
:1011800020E080E031E040E14A95F1F7880F4A9B8A
:1011900002C08160232742E04A95F1F7000040E158
:1011A0004A95F1F7915079F790E19A95F1F799B155
:1011B00032E03A95F1F7000040E14A95F1F792FBF1
:1011C000992790F992272081920F90830895EF92AA
:1011D000FF920F931F93CF93DF930F92CDB7DEB79C
:1011E00019828C017C01E60EF11C0E151F0561F4BD
:1011F00081E09981911180E00F90DF91CF911F9153
:101200000F91FF90EF9008950E94AD08CE010196D6
:101210000E94BB08F80181938F01E7CF90933E01B4
:1012200080933D01529A5A9A089590933E0180937B
:101230003D0152985A9AEA9AE9E6F0E080818F7C63
:10124000808308956150770B91E001C0990F6A95F2
:10125000EAF720E031E0911108C0222391F05A9A78
:1012600080E28A95F1F75A980895492F482339F07A
:101270005A9A232740E24A95F1F79695ECCF5A986F
:10128000F9CF5A98EDCFFF920F931F93CF93DF932F
:10129000EC018C01060F111DC017D10731F4DF914D
:1012A000CF911F910F91FF900895F9900E94B5087A
:1012B00068E08F2D0E942209EFCF1F920F920FB688
:1012C0000F9211242F933F934F935F936F937F93CC
:1012D0008F939F93AF93BF93CF93DF93EF93FF933E
:1012E0005A98529AC0913D01D0913E016D8166237A
:1012F00021F08E819F810E9443090E94B50880E100
:101300008A95F1F75A9852985A9A80E18A95F1F79E
:101310006A81662309F18B819C810E94E708E8813C
:10132000F981882311F088E001C082E080830E9467
:10133000AD08FF91EF91DF91CF91BF91AF919F9158
:101340008F917F916F915F914F913F912F910F906E
:101350000FBE0F901F901895E881F981E4CFCF93CD
:10136000DF93C0913D01D0913E01F894529A5A9872
:1013700085E08A95F1F7000052985A9A80E28A95A2
:10138000F1F74A9B0CC0529A5A9AE881F98181E0A0
:101390008083789481E090E0DF91CF9108956D8112
:1013A000662381F08E819F810E94E70881110AC027
:1013B000529A5A9AE881F98182E08083789482E097
:1013C00090E0EACF0E94AD0880E28A95F1F75A9842
:1013D000529A80E18A95F1F76A81662321F08B8128
:1013E0009C810E9443090E94B508E881F98110821E
:1013F000789490E080E0D0CF9093440180934301B3
:101400000895E0914301F0914401309721F001905B
:10141000F081E02D099480E00895E0914301F0917E
:101420004401309721F00280F381E02D0994089562
:1014300020914101309142012817390771F09093B2
:10144000420180934101E0914301F09144013097C2
:1014500021F00680F781E02D0994089520913F0145
:10146000309140012817390771F090934001809323
:101470003F01E0914301F0914401309721F0008455
:10148000F185E02D099408950E946415609354013C
:1014900070935501809356019093570160935001CA
:1014A000709351018093520190935301089585B731
:1014B000806885BF85B7806885BF089508950895C1
:1014C0000C945E0A08950C94620A0E94570A85EDF6
:1014D00093E10E94F5150E945F0A0C94600A0C9437
:1014E0002606089508950E94710A0C94720A0E94BB
:1014F0004F150E94A3150E94C2040C94630AAF9278
:10150000BF92CF92DF92EF92FF920F931F93CF93F0
:10151000DF93CDB7DEB72A970FB6F894DEBF0FBEC4
:10152000CDBF0E946D0581110E94440A86E4A82E59
:1015300081E0B82E10E000E0C02E802F0E949904B8
:10154000E82EF501F1905F01F81609F44BC0809187
:10155000D80181FD0E949F048F2D8E25D12CFF2460
:10156000F394982F9F21C9F10E946F0A882399F064
:10157000DE82CF82EF2081E009F480E088870E943C
:1015800058158160782F9A8789874E815F81688599
:101590008A850E941A0BF801EA5BFE4F8081F826CB
:1015A000F0820E94010A90914501891791F10E94F1
:1015B000010A809345012A960FB6F894DEBF0FBE4C
:1015C000CDBFDF91CF911F910F91FF90EF90DF90F2
:1015D000CF90BF90AF900C94A402D394FF0CF8E08E
:1015E000DF12BFCF0F5F1F4F0A30110509F0A4CFE4
:1015F0008FEF89838A831B820E9458158160782F20
:101600009D838C8349815A816B818D810E941A0B45
:10161000C8CF2A960FB6F894DEBF0FBECDBFDF91BC
:10162000CF911F910F91FF90EF90DF90CF90BF90DF
:10163000AF900895DF92EF92FF920F931F93CF9395
:10164000DF93CDB7DEB72B970FB6F894DEBF0FBE92
:10165000CDBF7A878B87F42E052F162FE72ED82E35
:1016600061110E9445131E821D827E2DEC82DD8257
:101670004F2D502F612F8D2D9E812B960FB6F894F4
:10168000DEBF0FBECDBFDF91CF911F910F91FF90B5
:10169000EF90DF900C947210FC01808191810C948A
:1016A000B112CF93C82F882329F18CEF8C0F813A88
:1016B000A0F46C2F8091090190910A010E94951469
:1016C000882329F08C2F0E94E6120E9468138C2F29
:1016D0000E94DF12CF910C94681380E28C0F883047
:1016E00048F4C77081E001C0880FCA95EAF70E94EC
:1016F0002813F0CFCF910895882329F19CEF980FFC
:10170000913A20F40E94E6120C94681390E2980F2C
:10171000983050F4877091E001C0990F8A95EAF7EC
:10172000892F0E942E13F0CF9BE5980F933020F461
:1017300090E080E00C94180A885A873120F490E0F9
:1017400080E00C942E0A08951F93CF93DF93182FF7
:10175000EB010E94510B209731F4812FDF91CF9143
:101760001F910C947C0B8FE99FE00197F1F700C06B
:1017700000002197F0CF70E060E0893311F460E55C
:1017800070E00C94A40B882321F00E9428130C9481
:1017900068130895882321F00E942E130C94681377
:1017A0000895BF92CF92DF92EF92FF920F931F9313
:1017B000CF93DF936C01D62FC72FFC0102811581D7
:1017C00012951F700E94FD12E82E8823A1F0E02ED2
:1017D000002389F08C2F807F803429F080E28D0FE8
:1017E000E12C883040F082E00E94B9130E94FD1283
:1017F00091E0E82EE926BC2EB2949FE0B922FBE0EE
:10180000FB1598F1EB2DF0E0EF56F34E0C94471CCE
:101810001C2F1F70C07F11F01295107F0023A9F0BC
:10182000112359F080E28D0F883010F0D11109C0DA
:10183000812F0E9428130E9468138D2F0E94510B44
:1018400014C0812F0E943813F6CF8D2F0E947C0B7D
:10185000112359F080E28D0F883010F0D1112CC087
:10186000812F0E942E130E9468132B2D2850330BBA
:101870002430310520F40E94010A0E94A402EE20C7
:1018800009F467C10E94F91280FD63C1F60112825A
:101890000E94F3120E947E11C6010E94CA0D0E948E
:1018A000F312DF91CF911F910F91FF90EF90DF9096
:1018B000CF90BF900C949F11812F0E943E13D3CFE5
:1018C0002C2F2F70F22EC07FC03219F0F29480EFCF
:1018D000F822DD2369F0D13049F1002391F1112381
:1018E00051F1F601858180FFA8CF8F70858323C0D9
:1018F000002381F0111106C00E944B138F290E9412
:10190000C30BB3CF1130C1F70E944B138F290E9434
:101910005113ABCF111106C00E945E138F2D0E9490
:10192000CA0BA3CF113009F4A0CFF6CF002329F0C2
:10193000163008F09ACF8F2DE2CF153008F095CFF2
:10194000EDCF112359F3D93349F4FFEF27EE33E0FC
:10195000F15020403040E1F700C000008D2F0E9480
:101960007C0B83CF8C2F837009F041C001117DCF98
:101970004D2F429546954770440F440F0D2F0F7021
:1019800010E030E020E0042E04C0000F111F221FE1
:10199000331F0A94D2F760E070E0CB01D4FF0FC090
:1019A0006FE070E080E090E004C0660F771F881F52
:1019B000991F4A95D2F76095709580959095C69538
:1019C000C695C370602B712B822B932BC23049F0CC
:1019D00058F4C13019F00E94301147CF0E941E11F7
:1019E00044CF0E94421141CF0E941C113ECF8695E8
:1019F000002311F08C2F8170882309F436CF4D2FEE
:101A0000429546954770440F440F0D2F0F7010E01C
:101A100030E020E0042E04C0000F111F221F331FEE
:101A20000A94D2F760E070E0CB01D4FF0FC06FE002
:101A300070E080E090E004C0660F771F881F991F58
:101A40004A95D2F76095709580959095C695C69504
:101A5000C370602B712B822B932BC23049F058F44A
:101A6000C13019F00E94F51100CF0E94E311FDCEA4
:101A70000E940712FACE0E945811F7CECF700023B1
:101A800029F08C2F0E947E118D2F39CF8D2F0E942F
:101A9000CA0B8C2F0E949F11E8CED23F89F160F4CF
:101AA000D03FC9F0D13F29F1002309F442C0111100
:101AB000C4CE8C2F8F7121C0D33F39F1D43FA1F711
:101AC000002369F1CF718C2F0E947E1163E08C2F6F
:101AD0000E949E13CACE002341F0153008F0C5CEF7
:101AE0008C2F8F710E94C211C0CE163008F0BDCE6F
:101AF000F7CF8C2F8F71002369F20E947E11B5CE33
:101B00008C2F8F710023C9F3C5CF002329F08C2FB0
:101B10008F710E946911A9CE0E946411A6CE81E046
:101B20000E94B913123008F4A0CE82E00E94B913CB
:101B30009CCE112359F0D93309F010CF8FEF97EED7
:101B4000E3E081509040E040E1F706CF8C2F8F71A9
:101B5000A1CFDF91CF911F910F91FF90EF90DF9078
:101B6000CF90BF9008950F931F93CF93DF93EC0115
:101B7000688179818A810E94BB128C010E941912AE
:101B80000E941B11B801CE01DF91CF911F910F91DF
:101B90000C94D10BCF93DF93EC018B819C81892B2B
:101BA00029F08881998189238F3F59F4DF91CF9162
:101BB0000895CE010E94B30DCE01DF91CF910C9418
:101BC0002A02CE010E944B028111F3CF0E94FD1226
:101BD000882361F38A81882349F382E0DF91CF91E2
:101BE0000C94B9130E9445130E9448130C94681377
:101BF0000E94ED120C94F20D0E9435130C94F80D16
:101C0000E92FE295EF70E250EE3070F4F0E0E35629
:101C1000F34E0C94471C803F19F020F4883E20F4CA
:101C200081E00895843FE1F380E00895883EC0F3A9
:101C3000813FD1F7F5CF93FB882780F908950E9463
:101C4000B1120C94000ECF93DF9300D000D00F920E
:101C5000CDB7DEB70F900F900F900F900F90DF91E0
:101C6000CF910895CF93DF9300D000D000D0CDB7AF
:101C7000DEB726960FB6F894DEBF0FBECDBFDF915C
:101C8000CF9108951F93CF93DF93C091590116E030
:101C900080915A018C1304C0DF91CF911F91089558
:101CA000D0E01C9FF0011D9FF00D1124E55AFE4F5E
:101CB0004081518162817381848195810E94320EBD
:101CC0002196C770E5CF40918B0150918C016091B6
:101CD0008D0170918E0180918F01909190010C94F3
:101CE000320E1F93CF93DF9380919001807FA9F4F0
:101CF00080918D01882389F080915901C0915A010A
:101D000060918B0170918C01A0918E01B0918F0137
:101D1000D62FD72316E0C81304C0DF91CF911F91AF
:101D2000089590E0109711F0DF3F19F40196877045
:101D3000F2CF189F9001199F300D1124F901E55A37
:101D4000FE4F41814713F2CF40814613EFCF4281CE
:101D50004111ECCF438154814A1B5B0B483C510538
:101D600028F7809190018F70806180939001F90134
:101D7000E05AFE4F80818F70806180838BE891E014
:101D80000E94CA0DDF91CF911F910C94420EAF9229
:101D9000BF92CF92DF92EF92FF920F931F93CF9358
:101DA000DF93CDB7DEB761970FB6F894DEBF0FBEF5
:101DB000CDBF8C0185E0F801DE011D9601900D92EA
:101DC0008A95E1F7F80140815181E2808BE8C82EC5
:101DD00081E0D82E60918E0170918F01611571059F
:101DE00009F461C190918B0120918C01892F82238C
:101DF0008F3F09F458C1A380B480F0908D01F501A4
:101E0000E61BF70BFF2009F4FCC080919001382FEE
:101E1000307FE83CF10508F0B2C0311179C0FE2CEA
:101E2000251323C0941321C0E1101FC08F7080615F
:101E3000809390010E94630EC6010E94CA0D80919A
:101E40009001F80185838F2D61960FB6F894DEBF5F
:101E50000FBECDBFDF91CF911F910F91FF90EF90FB
:101E6000DF90CF90BF90AF900895AB2829F0842FDA
:101E700085238F3F09F033C180E0F82FF170DF2E0A
:101E800080FF3CC08091590120915A0136E08213B5
:101E900015C04D875E878D859E850E94B112292FC2
:101EA00022952F702230F0F0243018F59F70F1F059
:101EB000F8019581907FD1F4D12C1EC090E0389F1D
:101EC000F001399FF00D1124E55AFE4F6181651331
:101ED00006C06081641303C062816E110FC0019659
:101EE0008770D5CF9F7011F0882331F3805E8830E2
:101EF00018F3C8010E94CA0DFD2CA5CFEE2009F4ED
:101F0000A2CF80919001816080939001F12C9BCFB2
:101F1000251306C0941304C0F801EE2009F48DC007
:101F20004D875E878D859E850E941F0E882319F13F
:101F3000EE2009F180919001803270F020918B01A8
:101F400030918C0138872F831986BB86AA868C87AF
:101F5000CE0107960E94CA0D86E0F801ABE8B1E019
:101F600001900D928A95E1F70E94710E0E94630E16
:101F7000FF24F39468CFC8010E94CA0DF9CF311134
:101F800013C07A2DB98AA88A6E2D89890E94230EE2
:101F90008BE891E00E94CA0D86E0F60111928A95C5
:101FA000E9F70E94630EB2CF25130FC094130DC042
:101FB000E1100BC0F8018583C8010E94CA0D86E0BC
:101FC000F60111928A95E9F73ECF4D875E878D85A0
:101FD0009E850E941F0E882371F2EE2061F280918F
:101FE0009001803208F4B8CF20918B0130918C01A0
:101FF0003A8329831B82BD82AC828E83CE010196F7
:10200000A9CFE83CF10508F041C0FE2CEE2009F410
:10201000B2CF25132AC0941328C08091900180FD6F
:102020001BC0982F907FC1F0F8018583903F31F05D
:10203000982F907F905F8F70892B8583C8010E94B5
:10204000CA0D86E0F801ABE8B1E001900D928A95E7
:10205000E1F70E94630EF7CE86E0F801ABE8B1E04D
:1020600001900D928A95E1F7EECE4D875E878D85C2
:102070009E850E941F0E81116FCF8091900181601B
:1020800080939001C8010E94CA0DDDCE7A2DB98AD5
:10209000A88A6E2D89890E94230E86E0F60111928E
:1020A0008A95E9F7D6CFEE2009F465CF4D875E8794
:1020B0008D859E850E941F0EF82E882309F45BCF24
:1020C00086E0F801ABE8B1E001900D928A95E1F766
:1020D0008BE891E00E944C0B0E94710EBACF81E018
:1020E0008E25CBCE1F93CF93DF93CDB7DEB72C9742
:1020F0000FB6F894DEBF0FBECDBF4F8358876987F8
:102100007A878B879C87CE0107960E94C70E88230B
:1021100069F08A859B85892B39F04F815885842FFA
:1021200085238F3F09F071C016E05FC086E0FE0195
:102130003796DE01119601900D928A95E1F78A8516
:102140009B85892B89F38F81988589238F3F61F344
:1021500020915A0130E0C90101968770992740917A
:1021600059014817190671F40E94FC0D10925A018A
:102170001092590186E0EBE8F1E0DF011D928A95AB
:10218000E9F7D2CF96E0929FD001939FB00D112432
:10219000A55ABE4FFE01319601900D929A95E1F736
:1021A00080935A010E94420EBFCF819FC00111242B
:1021B000855A9E4F0E94C70E8823E9F0E09159018D
:1021C0001E9FF0011124E55AFE4F4081518162812A
:1021D0007381848195810E94320E8091590190E033
:1021E00001968770992780935901809159019091A8
:1021F0005A018913DACF2C960FB6F894DEBF0FBEC2
:10220000CDBFDF91CF911F91089569857A858B8528
:102210009C850E94320E88CF08950C940C110E9468
:102220000D116093C7017093C8018093C901909309
:10223000CA010C94F20D08950C940F110F931F9383
:102240000091C7011091C8012091C9013091CA01C4
:10225000602B712B822B932B1F910F910C940F11DC
:102260000F931F930091C7011091C8012091C901DC
:102270003091CA0160237123822393231F910F9110
:102280000C940F110F931F930091C7011091C80177
:102290002091C9013091CA016027712782279327B5
:1022A0001F910F910C940F110C940C110C9454115C
:1022B0000E9456116093C3017093C4018093C501BD
:1022C0009093C6010C94F20D60E070E0CB010C9489
:1022D00058110F931F9341E050E060E070E08A01D5
:1022E0009B0104C0000F111F221F331F8A95D2F7D4
:1022F000C901B8011F910F910C9458110F931F93AE
:1023000041E050E060E070E004C0440F551F661FDC
:10231000771F8A95D2F78091C3019091C401A09153
:10232000C501B091C6018A019B01082B192B2A2BEC
:102330003B2BC901B8011F910F910C9458110F93B9
:102340001F9341E050E060E070E004C0440F551F6F
:10235000661F771F8A95D2F7CB01BA0160957095F9
:10236000809590950091C3011091C4012091C50101
:102370003091C60160237123822393231F910F9113
:102380000C9458110F931F9341E050E060E070E00F
:1023900004C0440F551F661F771F8A95D2F780919E
:1023A000C3019091C401A091C501B091C6018A01F9
:1023B0009B01082719272A273B27C901B8011F912C
:1023C0000F910C9458110F931F930091C30110911A
:1023D000C4012091C5013091C601602B712B822B65
:1023E000932B1F910F910C9458110F931F930091F1
:1023F000C3011091C4012091C5013091C601602331
:102400007123822393231F910F910C9458110F93E2
:102410001F930091C3011091C4012091C501309117
:10242000C60160277127822793271F910F910C9473
:1024300058110895990F990F990F890F982F977038
:1024400041E001C0440F9A95EAF7869586958695F6
:1024500095E0899FF0011124EF56FE4F30E020E017
:1024600070E05191DF011197CB01022E02C09695C9
:1024700087950A94E2F781708195852784238527C3
:102480008C932F5F3F4F2530310559F70895990FF1
:10249000990F990F890F982F977086958695869535
:1024A00025E0829FF0011124EF56FE4F50E040E0FE
:1024B00080E0219130E0092E02C0369527950A94DC
:1024C000E2F721703327042E01C0220F0A94EAF7A5
:1024D000822B4F5F5F4F4530510559F70895BF92EA
:1024E000CF92DF92EF92FF920F931F93CF93DF93E0
:1024F0008C01C090C301D090C401E090C501F09060
:10250000C6018091C7019091C801A091C901B09105
:10251000CA01C82AD92AEA2AFB2ACFE1D0E0BC2E78
:10252000D701C6010C2E04C0B695A795979587953F
:102530000A94D2F780FD0EC0219788F7B12C8B2D1D
:10254000DF91CF911F910F91FF90EF90DF90CF908F
:10255000BF900895B8018C2F0E94C102019761F3CA
:10256000EECFCF93DF93EC010E946F12BE01DF919B
:10257000CF910C94C1021F93CF93DF93EB01909105
:102580005801992331F0CB01DF91CF911F910C9429
:10259000B112882379F0CB010E946F12182F682F97
:1025A000CE010E941A12BE01812FDF91CF911F919F
:1025B0000C94C102CB010E944712182FF4CF682F50
:1025C0008091090190910A010C94CB14682F80919D
:1025D000090190910A010C94CD1480910901909108
:1025E0000A010C94CF148091CB0185958595859532
:1025F00008958091CB01877008959091CB019770D9
:1026000081E009F480E008959091E50192FB222792
:1026100020F9281751F080FB92F99093E501809101
:10262000E4019091E5010C94F81308958091E5017F
:1026300082FB882780F991E089270C94041381E0BC
:102640000C94041380E00C9404138091D701089536
:102650009091D701892B8093D7010895809590910F
:10266000D70198239093D70108951092D701089528
:102670009091D601892B8093D601089580959091F1
:10268000D60198239093D60108951092D60108950B
:102690001092D50108958091CC01089508950C946D
:1026A0004E139091E50192FD08C09091CC019817CE
:1026B00021F08093CC010C944F1308958091CC01AC
:1026C000882329F01092CC0180E00C944F130895D8
:1026D000E0910901F0910A018091D7018083E09196
:1026E0000901F0910A0180819091D601892B8083A4
:1026F000E0910901F0910A0180819091D501892B27
:1027000080839091CC01992381F0E0910901F091AF
:102710000A018081892B80838091090190910A01AF
:102720000E94831481110E945E138091090190918F
:102730000A010C940D0A08950C949B139091E501E5
:1027400092FD10C098E0899F90011124622B609344
:10275000CB010E947E118091CB0185958595859551
:102760000C949C130C947E111092CB0180E00C947D
:102770009C139091CB01809589238093CB01282FC6
:10278000277039F4282F082E000C330B92171306EC
:1027900021F49091E50192FF07C085958595859577
:1027A0000E949F110C94B413089580E0089590E066
:1027B00080E00E94551C21E08A3E9E4F09F020E0F7
:1027C000822F089582E090E00C944D1C83E090E00D
:1027D0000C944D1CCF9384E090E00E944D1CC82FB8
:1027E00082E290E00E944D1C982F8C2FCF9108958B
:1027F000CF93C92F682F84E090E00E945B1C6C2F60
:1028000082E290E0CF910C945B1CAB01BC018FE0A5
:1028100090E00C946D1CAB01BC0183E190E00C9442
:102820006D1C60E070E0CB010C940B1460E070E074
:10283000CB010E9405140C9411146AEE7EEF90E017
:1028400080E00E94791C60E082E090E00E945B1CC6
:1028500060E083E090E00E945B1C1092C701109240
:10286000C8011092C9011092CA0160E084E090E0B2
:102870000E945B1C60E082E290E00E945B1C60E0D2
:1028800085E090E00E945B1C60E086E090E00E94A2
:102890005B1C6FEF87E090E00E945B1C40E050E023
:1028A000BA0188E090E00E946D1C60E08DE090E04D
:1028B0000E945B1C40E050E0BA0188E190E00E9479
:1028C0006D1C60E087E190E00E945B1C40E050E0FE
:1028D000BA018CE190E00E946D1C70E060E080E243
:1028E00090E00E94791C40E050E0BA0188E190E05D
:1028F0000E946D1C0C9416140C941D14682F8EE00D
:1029000090E00C945B1C9C012E5F3F4FAC01485F34
:102910005F4F80E02417350709F40895F90191917C
:102920009F019923B9F38F5FF5CF662349F0FC012E
:10293000329608962191261729F0E817F907D1F762
:1029400080E0089581E008959C01FC0132969FEF9C
:1029500080E04191461751F09F3F19F4411101C0A9
:10296000982F8F5F8630A9F79F3F09F40895290FAC
:10297000311D97FD3A95F90162830895FC01329665
:1029800008962191261303C0DF0111971C92E817C6
:10299000F907B9F708950C94A4140C94BE14029688
:1029A00026E0FC0111922A95E9F70895089508950B
:1029B0000C94D71480910802843049F10E94D814F5
:1029C00080E00E94A4021092D90188E190E020E406
:1029D0000FB6F894A895809360000FBE2093600016
:1029E00083B7817F846083BF83B7816083BF78941E
:1029F000889583B78E7F83BF0FB6F894A895809192
:102A00006000886180936000109260000FBE08959E
:102A10000895CF930E94D6140E946D050E94081558
:102A2000C0E08C2F0E949904811105C0CF5FCA308D
:102A3000C1F7CF91089581E0FCCF08950C941D1546
:102A40000E94FC0D0E94010A0E94A4020C941E1513
:102A50001F921FB61F9211248F939F93AF93BF9322
:102A60008091D901811113C08091FC019091FD01E9
:102A7000A091FE01B091FF014196A11DB11D80936F
:102A8000FC019093FD01A093FE01B093FF01BF9163
:102A9000AF919F918F911F901FBE1F90189582E05C
:102AA00084BD93E095BD9AEF97BD80936E00089525
:102AB0002FB7F8948091FC019091FD01A091FE0147
:102AC000B091FF012FBF08952FB7F8946091FC01DA
:102AD0007091FD018091FE019091FF012FBF08953B
:102AE0009C014FB7F8948091FC019091FD01A09159
:102AF000FE01B091FF014FBF821B930B08957894A4
:102B00001F921FB61F9211248F939F93AF93BF9371
:102B10008091FC019091FD01A091FE01B091FF0117
:102B20000196A11DB11D8093FC019093FD01A0931E
:102B3000FE01B093FF01BF91AF919F918F911F90C4
:102B40001FBE1F9018951092000210920102109261
:102B50000202109203020895CF92DF92EF92FF9249
:102B60006B017C010E94260681110EC00E94641533
:102B7000C61AD70AE80AF90AC0920002D0920102E6
:102B8000E0920202F0920302FF90EF90DF90CF906C
:102B900008950F931F930E942606882321F01F910A
:102BA0000F910C9464150E9464150091000210911D
:102BB00001022091020230910302600F711F821FF7
:102BC000931F1F910F91089587E797E7909301084E
:102BD0008093000888E19AE00FB6F894A895809356
:102BE00060000FBE90936000FFCF90932901809307
:102BF000280108958091E201089508950895CF93E2
:102C0000DF93EC0181E08093E9008FEF9091E80081
:102C1000815095FD06C095ED9A95F1F70000811160
:102C2000F5CF8091E80085FF14C050E040E068E0F7
:102C300070E0CE010E94A4178091E8008E77809307
:102C4000E80088E0FE01AAEDB1E001900D928A95BE
:102C5000E1F7DF91CF9108950895809107028111E6
:102C600009C00E9434190E9491198091E200846089
:102C70008093E20008951092070208950895089540
:102C8000089542E061EC81E00C94B01880910A0252
:102C9000833009F45FC030F48130C1F1823009F42F
:102CA0009BC008958A3009F487C08B3009F46DC049
:102CB000893009F04EC080910902813209F049C083
:102CC00080910D0290910E02892B09F042C08091F3
:102CD000E800877F8093E8008091E80082FF35C09C
:102CE0009091F3008091F200029729F48091F10015
:102CF0008B7F813021F48091F1008093E2018091FB
:102D0000E8008B778093E8000C94E4188091090226
:102D1000813AF9F48091E800877F8093E800809100
:102D20000D0290910E02892B61F468E08AED91E02A
:102D300070E00E94F3178091E8008B778093E800A1
:102D4000089560E090E080E0F3CF80910802811167
:102D5000C3CF089580910902813AD9F780910D027D
:102D600090910E02892BA9F78091E800877F8093CC
:102D7000E8008091E80080FFFCCF809115018093EE
:102D8000F1008091E8008E77BDCF809109028132F9
:102D900001F780910D0290910E02892BD1F680915E
:102DA000E800877F8093E8000E94E41880910B027E
:102DB000809315010C94FC0D80910902813249F633
:102DC0008091E800877F8093E8000E94E41880915A
:102DD0000C028093E301089580910902813A09F081
:102DE000B8CF8091E800877F8093E8008091E80069
:102DF00080FFFCCF8091E301C2CF84B7877F84BF7F
:102E00000FB6F894A8958091600088618093600067
:102E1000109260000FBE80E890E00FB6F8948093A7
:102E20006100909361000FBE0E94650A0E943419F0
:102E30000E9491198091E20084608093E20078946E
:102E40000E941A1C0E94770A8BE091E00E94FC0904
:102E500080910802853099F00E947F0A0E94730ACF
:102E6000F7CF0E94DA1480910602882341F00E9475
:102E70000915882321F00E948E170E94FC0D809175
:102E80000802853071F30E942015E6CF0C94481794
:102E9000292F332723303105C9F058F4213031056B
:102EA00099F122303105A9F190E080E030E020E096
:102EB0001DC02132310509F122323105A9F780E424
:102EC00090E028EF32E0672B79F710C09927813026
:102ED000910581F0009729F0029731F7ECE8F2E0D4
:102EE00002C0E0ECF2E0849190E09F01FA013183AE
:102EF00020830895E8EAF2E0F6CF89E090E026ED3D
:102F000032E0672B89F6F2CF82E190E026EE32E0E4
:102F1000EDCF82E290E024EC32E0E8CF80E189BDA1
:102F200082E189BD09B400FEFDCF8091D8008F7D7C
:102F30008093D8008091E00082608093E0008091CF
:102F4000E00081FDFCCF0895AF92BF92CF92DF9257
:102F5000FF920F931F93CF93DF936C01EB018A01D4
:102F60000E940319F82E811123C00115110539F0B3
:102F7000F80180819181C81BD90BC80ED91EB12CD4
:102F8000A12C2097A9F08091E80085FD22C08091B6
:102F9000E8008E778093E80001151105A1F0F80193
:102FA00080819181A80EB91EB182A08285E0F82EA1
:102FB0008F2DDF91CF911F910F91FF90DF90CF90D8
:102FC000BF90AF9008950E9403198823D1F2F82E84
:102FD000EFCFF60181916F018093F1002197FFEF10
:102FE000AF1ABF0ACECFFC0180910F029091100260
:102FF00086179707A0F06115710529F49091E800F4
:103000009E779093E80090E06115710551F491115D
:1030100008C08091E80082FF34C080E00895BC01C0
:10302000F2CF809108028823C1F18530C1F18091EF
:10303000E80083FD30C08091E80082FDEACF8091F6
:10304000E80080FFE1CF8091F3002091F200382F5B
:103050006115710519F02830310558F091E02830DC
:10306000310509F090E02091E8002E772093E800E8
:10307000CBCF81918093F100615071092F5F3F4F59
:10308000E7CF80910802882341F0853041F080919C
:10309000E80083FFBECF81E0089582E0089583E0D9
:1030A0000895FC0180910F029091100286179707F6
:1030B000A0F06115710529F48091E8008E77809366
:1030C000E80090E06115710551F4911108C08091FC
:1030D000E80082FF35C080E00895BC01F2CF809106
:1030E00008028823C9F18530C9F18091E80083FD89
:1030F00031C08091E80082FDEACF8091E80080FF36
:10310000E1CF8091F3002091F200382F6115710515
:1031100019F02830310558F091E02830310509F0D8
:1031200090E08091E8008E778093E800CBCF849187
:103130008093F1003196615071092F5F3F4FE6CFC8
:1031400080910802882341F0853041F08091E800A9
:1031500083FFBDCF81E0089582E0089583E0089564
:10316000982F973028F08F708093E90081E00895C0
:103170009093E900242F762F50E0981731F070914A
:10318000EC002091ED005091F00021FD02C09F5F06
:10319000E8CF3091EB003E7F3093EB003091ED00B3
:1031A0003D7F3093ED003091EB0031603093EB00C8
:1031B0007093EC002093ED005093F0002091EE000E
:1031C00027FDE5CF80E008958091090287FF13C0B5
:1031D0008091E80082FF06C08091E8008B778093A1
:1031E000E80004C0809108028111F2CF0895809117
:1031F00008028823D9F38091E80080FFF8CF8091FE
:10320000E8008E77ECCF2091E4003091E50095E660
:10321000A9012091EC00822F817020FF06C08091CF
:10322000E80080FF06C080E008952091E80022FDBC
:103230001AC080910802882389F0853089F0809136
:10324000EB0085FD0FC02091E4003091E5004217AE
:103250005307F9F29150E1F684E0089582E0089571
:1032600083E0089581E008950E94A2190E94AA199E
:10327000E0EEF0E0808181608083E8EDF0E0808125
:103280008F77808319BCA7EDB0E08C918E7F8C93F3
:1032900080818F7E80831092070208950F931F9381
:1032A000CF93DF930E94A2190E94AA19C8EDD0E023
:1032B00088818F77888388818068888388818F7DE3
:1032C000888319BC10920802109204021092060220
:1032D0001092050200EE10E0F80180818B7F808360
:1032E00088818160888342E060E080E00E94B018BD
:1032F000E1EEF0E080818E7F8083E2EEF0E080817D
:1033000081608083808188608083F80180818E7FE6
:103310008083888180618883DF91CF911F910F9195
:103320000895E8EDF0E080818F7E8083E7EDF0E0A6
:1033300080818160808384E082BF81E08093070286
:103340000C944E19E8EDF0E080818E7F808310921E
:10335000E20008951092DA001092E10008951F92A1
:103360000F920FB60F9211242F933F934F935F93B9
:103370006F937F938F939F93AF93BF93EF93FF933D
:103380008091E10082FF0BC08091E20082FF07C0C4
:103390008091E1008B7F8093E1000E94191C809155
:1033A000DA0080FF19C08091D80080FF15C080919D
:1033B000DA008E7F8093DA008091D90080FF96C07A
:1033C00080E189BD82E189BD09B400FEFDCF81E0C5
:1033D000809308020E942D168091E10080FF19C0A1
:1033E0008091E20080FF15C08091E2008E7F809383
:1033F000E2008091E20080618093E2008091D80039
:1034000080628093D80019BC85E0809308020E94F6
:103410003F168091E10084FF2BC08091E20084FF81
:1034200027C080E189BD82E189BD89B5982F91705F
:1034300080FFFBCF8091D8008F7D8093D800809152
:10344000E1008F7E8093E1008091E2008F7E809387
:10345000E2008091E20081608093E20080910402AA
:10346000882309F449C084E0809308020E94401632
:103470008091E10083FF29C08091E20083FF25C095
:103480008091E100877F8093E10082E080930802D1
:10349000109204028091E1008E7F8093E100809180
:1034A000E2008E7F8093E2008091E2008061809351
:1034B000E20042E060E080E00E94B0188091F000FD
:1034C00088608093F0000E943E16FF91EF91BF91BB
:1034D000AF919F918F917F916F915F914F913F91AC
:1034E0002F910F900FBE0F901F90189519BC10923E
:1034F00008020E943B1670CF8091E30087FD93E0A5
:1035000090930802B3CF1F920F920FB60F9211241F
:103510002F933F934F935F936F937F938F939F93DB
:10352000AF93BF93CF93DF93EF93FF93D091E900D5
:10353000DF708091EC00C82FC17080FDC0E8109250
:10354000E9008091F000877F8093F00078940E94DA
:10355000C71A1092E9008091F00088608093F00013
:10356000CD2BCF70C093E900FF91EF91DF91CF9108
:10357000BF91AF919F918F917F916F915F914F918B
:103580003F912F910F900FBE0F901F9018951F9392
:10359000CF93DF93CDB7DEB7AA970FB6F894DEBF0F
:1035A0000FBECDBF89E092E02091F100FC01219394
:1035B000CF01F2E081319F07B9F70E944616809152
:1035C000E80083FF1EC18091090290910A029A309F
:1035D00008F017C1E92FF0E0E555F34E0C94471CB5
:1035E000803899F0823809F00CC180910D028F70FB
:1035F000873008F006C18093E9008091EB0085FBDD
:10360000882780F91092E90006C080910502909108
:103610000602911182609091E800977F9093E800F4
:103620008093F1001092F1008091E8008E77E5C060
:10363000882309F4D3C0823009F0E3C080910B02E3
:103640008111D6C080910D028F702FEF280F263088
:1036500008F0D7C08093E9002091EB0020FFC8C09C
:10366000933031F48091EB0080628093EB00C0C016
:103670009091EB0090619093EB0021E030E001C06D
:10368000220F8A95EAF72093EA001092EA008091CF
:10369000EB008860EACF8111B4C010910B021F7754
:1036A0008091E3008078812B8093E3008091E80093
:1036B000877F8093E8000E94E4188091E80080FFF3
:1036C000FCCF8091E30080688093E30082E01111D9
:1036D00083E08093080295C08058823008F091C042
:1036E00080910B0290910C028C3D23E09207A1F592
:1036F00083E08A838AE289834FB7F894DE011396C8
:1037000020E03EE051E2E32FF0E050935700E491D7
:1037100020FF03C0E295EF703F5FEF708E2F90E0C7
:10372000EA30C0F0C7968D939D932F5F243159F7EF
:103730004FBF8091E800877F8093E8006AE270E0E5
:10374000CE0101960E94F3178091E8008B77809359
:10375000E80057C0C096E7CF60910D0270910E024D
:10376000AE014F5F5F4F0E944617BC01892B09F4E1
:1037700048C09091E800977F9093E80089819A81F2
:103780000E945118E1CF8038E1F58091E800877FF1
:103790008093E800809104028093F10045CF81116D
:1037A00030C090910B02923060F58091E800877FE5
:1037B0008093E800909304020E94E4188091040230
:1037C000882311F084E005C08091E30087FDFACFE3
:1037D00081E0809308020E94411613C080910B0281
:1037E000813079F481E0933009F080E08093060223
:1037F0001092E9008091E800877F8093E8000E94A2
:10380000E4188091E80083FF0AC08091E800877F78
:103810008093E8008091EB0080628093EB00AA9691
:103820000FB6F894DEBF0FBECDBFDF91CF911F91D1
:1038300008950895CF93809108028823A1F0C09144
:10384000E900CF709091EC00892F817090FD80E8A5
:10385000C82B1092E9008091E80083FD0E94C71AEE
:10386000CF70C093E900CF9108950E94341910924F
:1038700008020895E8EDF0E08081806180838AE1AC
:103880008A95F1F700C08091D90081700895EE0FFC
:10389000FF1F0590F491E02D0994F999FECF92BD98
:1038A00081BDF89A992780B50895A8E1B0E042E07B
:1038B00050E00C94811C262FF999FECF92BD81BD5A
:1038C000F89A019700B4021639F01FBA20BD0FB65E
:1038D000F894FA9AF99A0FBE08950396272F0E943A
:1038E0005C1C0E945B1C252F0E945C1C242F0C94E6
:1038F0005C1C0196272F0E945C1C0C945B1CDC0155
:10390000CB01FC01F999FECF06C0F2BDE1BDF89AEA
:10391000319600B40D9241505040B8F70895F89494
:10392000FFCF080C080C600C600C350C350C350C06
:10393000350CB20C3E0D4D0D4D0D0B0E0B0E140E35
:10394000140E160E140E140E140E0B0E0B0E1B0E70
:10395000140E140E1B0EF01A181B011C181B011C50
:0A3960004B1B6C1B011CC31BCF1B8B
:10396A00013301043401053801CD01FA15FF15FDB3
:10397A0015FE152C1601F4F5F6F731333236946636
:08398A0097C6340000000000A4
:00000001FF
